:04000000F0EF01F02C
:08000800046ED8CF05F0E0CF33
:1000100006F00001E9CF0CF0EACF07F0E1CF08F0DD
:10002000E2CF09F0D9CF0AF0DACF0BF0F3CF12F01C
:10003000F4CF13F0FACF14F0F5CF15F0F6CF16F099
:10004000F7CF17F000C00EF001C00FF002C010F0A3
:1000500003C011F0F2A630EF00F0F2B057EF00F05D
:100060000EC000F00FC001F010C002F011C003F08C
:100070000CC0E9FF07C0EAFF078E08C0E1FF09C016
:10008000E2FF0AC0D9FF0BC0DAFF12C0F3FF13C0B2
:10009000F4FF14C0FAFF15C0F5FF16C0F6FF17C035
:1000A000F7FF045006C0E0FF05C0D8FF10001BC0DA
:1000B0001CF093688150300B1B6E1C50200806E129
:1000C0001B50300803E1192AD8B41A2A1C503008F2
:1000D00007E11B50200804E11950D8B41A0619068C
:1000E00081500000F29030EF00F00C5265616479AD
:1000F0002E2E2E0A000076616C75653A20254C6420
:10010000200A0D00EA6A240EE96EEF500DE0060E9B
:10011000016E006A002EFED7012EFBD77B0E006E0B
:10012000002EFED7EF2EF3D712002938F00B006E09
:100130000F0E8C1400108C6E00008C80030E006E6D
:10014000002EFED78C9012008350006E00380F0BEB
:10015000016E12000F0E9514F009956E8C8400004C
:100160008C800000F1DF01C029F08C9000008C80B1
:1001700000D000D00000E8DF01C028F08C900F0E06
:100180009514956E2938006EF00E00160050281058
:10019000016ED0EF00F09590959295948C92DAD7FD
:1001A00001C028F001BEFBD78C9226B08C820000E3
:1001B0008C9400008C902738286E0F0E281628C0CB
:1001C00029F0B3DF27500F0B286E296EAEDF120027
:1001D000280E206E0C0E216E010E226E060E236E6E
:1001E0008C908C928C940F0E9514956E95909592A0
:1001F00095940F0E246E86DF010E1F6E1F500308AC
:1002000008E3030E296E91DF050E246E7BDF1F2AA3
:10021000F5D7020E296E89DF050E246E73DF1F6A83
:100220001F5003080DE3036A1F50200FE96E000EF4
:100230000320EA6EEFCF27F0266AADDF1F2AF0D742
:100240000FEF02F0232C01D003D0400E246E01D01A
:10025000246A010E225C242624508009256E266A19
:10026000276E99DF12002150070A07E00B0A0AE007
:10027000060A10E0020A14E018D0010E226E236E66
:10028000E1DF18D0266A010E276E85DF020E246E8C
:1002900039DF10D0010E226E020E236ED3DF0AD09A
:1002A000266A100E276E77DF05D0010E266E21C05C
:1002B00027F071DF66EF01F00900F5520CE0F6CF90
:1002C0001FF0F7CF20F0F5CF21F0CDD71FC0F6FFFC
:1002D00020C0F7FFF1D714EF02F00900F6CF20F0AD
:1002E000F7CF21F0F5509EA8FED7AD6E20C0F6FFE7
:1002F00021C0F7FF1F2EF1D71200EACF27F0E9CF78
:1003000026F020AE08D0268E26A8262A1F1E201EE4
:100310001F2AD8B4202A2038F009226E2226E20FA4
:10032000236E320F256E20500F0B23262326252601
:10033000E90F246E242624261F380F0B2426252699
:1003400024362536251E25361F500F0B252622362E
:10035000070E216E0A0E24062526FDE32306242619
:10036000FDE322062326FDE321062226FDE3EA6AB9
:10037000210EE96E070E2614269CED52261407E185
:1003800026B8EE5226B803D0200E006E20D0E92603
:10039000000EEA22E950250803E1EA5201E1268C29
:1003A000EF50006E08E126BC06D026B814D026B661
:1003B00002D0200E0BD026AE06D02D0E006EED50D2
:1003C000269C269E04D026862698300E00260050B5
:1003D0009EA8FED7AD6EEE5026ACDCD72CEF02F017
:1003E000F86AD09E078EB886080EAF6E020EB06E09
:1003F000A60EAC6E900EAB6E000000001B6A1C6A6D
:100400001E6A1D6AC150C00B0F09C16E070EB46E83
:10041000F286C00EF212F19E96948D94D9D6EA0E11
:10042000F66E000EF76E48D793908A900A0E246EEF
:1004300069DE93908A800A0E246E64DEF60EF66EF4
:10044000000EF76E070E1F6E48DF100EE96E1AC021
:1004500020F019C01FF051D7000EF66E010EF76E96
:0A046000030E1F6E3ADFE0D7030021
:020000040030CA
:0E00000000C21E1E000781000FC00FE00F405F
:00000001FF
;PIC18F4520
;CRC=7DDD  CREATED="23-abr.-20 18:59"
